{
  "contractName": "FleaMarketFactory",
  "abi": [
    {
      "inputs": [],
      "stateMutability": "nonpayable",
      "type": "constructor"
    },
    {
      "anonymous": false,
      "inputs": [
        {
          "indexed": false,
          "internalType": "address",
          "name": "sender",
          "type": "address"
        },
        {
          "indexed": false,
          "internalType": "bytes32",
          "name": "key",
          "type": "bytes32"
        },
        {
          "indexed": false,
          "internalType": "address",
          "name": "contractAddress",
          "type": "address"
        }
      ],
      "name": "LogCreatePurchaseContract",
      "type": "event"
    },
    {
      "anonymous": false,
      "inputs": [
        {
          "indexed": false,
          "internalType": "address",
          "name": "sender",
          "type": "address"
        },
        {
          "indexed": false,
          "internalType": "bytes32",
          "name": "key",
          "type": "bytes32"
        }
      ],
      "name": "LogRemovePurchaseContract",
      "type": "event"
    },
    {
      "anonymous": false,
      "inputs": [
        {
          "indexed": true,
          "internalType": "address",
          "name": "previousOwner",
          "type": "address"
        },
        {
          "indexed": true,
          "internalType": "address",
          "name": "newOwner",
          "type": "address"
        }
      ],
      "name": "OwnershipTransferred",
      "type": "event"
    },
    {
      "inputs": [],
      "name": "contractName",
      "outputs": [
        {
          "internalType": "string",
          "name": "",
          "type": "string"
        }
      ],
      "stateMutability": "view",
      "type": "function"
    },
    {
      "inputs": [],
      "name": "isOwner",
      "outputs": [
        {
          "internalType": "bool",
          "name": "",
          "type": "bool"
        }
      ],
      "stateMutability": "view",
      "type": "function"
    },
    {
      "inputs": [],
      "name": "owner",
      "outputs": [
        {
          "internalType": "address payable",
          "name": "",
          "type": "address"
        }
      ],
      "stateMutability": "view",
      "type": "function"
    },
    {
      "inputs": [
        {
          "internalType": "address payable",
          "name": "newOwner",
          "type": "address"
        }
      ],
      "name": "transferOwnership",
      "outputs": [],
      "stateMutability": "nonpayable",
      "type": "function"
    },
    {
      "inputs": [
        {
          "internalType": "bytes32",
          "name": "key",
          "type": "bytes32"
        },
        {
          "internalType": "string",
          "name": "description",
          "type": "string"
        },
        {
          "internalType": "string",
          "name": "ipfsImageHash",
          "type": "string"
        },
        {
          "internalType": "uint256",
          "name": "commissionRate",
          "type": "uint256"
        }
      ],
      "name": "createPurchaseContract",
      "outputs": [
        {
          "internalType": "bool",
          "name": "createResult",
          "type": "bool"
        }
      ],
      "stateMutability": "payable",
      "type": "function"
    },
    {
      "inputs": [],
      "name": "getContractCount",
      "outputs": [
        {
          "internalType": "uint256",
          "name": "contractCount",
          "type": "uint256"
        }
      ],
      "stateMutability": "view",
      "type": "function"
    },
    {
      "inputs": [
        {
          "internalType": "uint256",
          "name": "index",
          "type": "uint256"
        }
      ],
      "name": "getContractKeyAtIndex",
      "outputs": [
        {
          "internalType": "bytes32",
          "name": "key",
          "type": "bytes32"
        }
      ],
      "stateMutability": "view",
      "type": "function"
    },
    {
      "inputs": [
        {
          "internalType": "bytes32",
          "name": "key",
          "type": "bytes32"
        }
      ],
      "name": "getContractByKey",
      "outputs": [
        {
          "internalType": "address",
          "name": "contractAddress",
          "type": "address"
        }
      ],
      "stateMutability": "view",
      "type": "function"
    },
    {
      "inputs": [
        {
          "internalType": "bytes32",
          "name": "key",
          "type": "bytes32"
        }
      ],
      "name": "removeContractByKey",
      "outputs": [
        {
          "internalType": "bool",
          "name": "result",
          "type": "bool"
        }
      ],
      "stateMutability": "nonpayable",
      "type": "function"
    }
  ],
  "bytecode": "0x608060405234801561001057600080fd5b5060006100246001600160e01b036100b816565b600080546001600160a01b0319166001600160a01b0383169081178255604051929350917f8be0079c531659141344cd1fd0a4f28419497f9722a3daafe3b4186f6b6457e0908290a3506040805180820190915260198082527f466c65614d61726b657420536d61727420436f6e74726163740000000000000060209092019182526100b2916003916100bd565b50610155565b335b90565b828054600181600116156101000203166002900490600052602060002090601f016020900481019282601f106100fe57805160ff191683800117855561012b565b8280016001018555821561012b579182015b8281111561012b578251825591602001919060010190610110565b5061013792915061013b565b5090565b6100ba91905b808211156101375760008155600101610141565b61238f806101646000396000f3fe608060405260043610620000925760003560e01c80638f32d59b11620000615780638f32d59b14620001dd578063932b760a14620001f55780639399869d14620002c7578063d203031314620002df578063f2fde38b146200030d5762000092565b806375d0c0dc14620000975780637f66e22414620001275780638da5cb5b14620001675780638ea5ad30146200019b575b600080fd5b348015620000a457600080fd5b50620000af62000346565b6040805160208082528351818301528351919283929083019185019080838360005b83811015620000eb578181015183820152602001620000d1565b50505050905090810190601f168015620001195780820380516001836020036101000a031916815260200191505b509250505060405180910390f35b3480156200013457600080fd5b5062000155600480360360208110156200014d57600080fd5b5035620003d8565b60408051918252519081900360200190f35b3480156200017457600080fd5b506200017f620003f3565b604080516001600160a01b039092168252519081900360200190f35b348015620001a857600080fd5b50620001c960048036036020811015620001c157600080fd5b503562000402565b604080519115158252519081900360200190f35b348015620001ea57600080fd5b50620001c9620004d3565b620001c9600480360360808110156200020d57600080fd5b813591908101906040810160208201356401000000008111156200023057600080fd5b8201836020820111156200024357600080fd5b803590602001918460018302840111640100000000831117156200026657600080fd5b9193909290916020810190356401000000008111156200028557600080fd5b8201836020820111156200029857600080fd5b80359060200191846001830284011164010000000083111715620002bb57600080fd5b919350915035620004f9565b348015620002d457600080fd5b5062000155620006c1565b348015620002ec57600080fd5b506200017f600480360360208110156200030557600080fd5b5035620006d4565b3480156200031a57600080fd5b5062000344600480360360208110156200033357600080fd5b50356001600160a01b031662000742565b005b6003805460408051602060026001851615610100026000190190941693909304601f81018490048402820184019092528181529291830182828015620003d05780601f10620003a457610100808354040283529160200191620003d0565b820191906000526020600020905b815481529060010190602001808311620003b257829003601f168201915b505050505081565b6000620003ed60018363ffffffff620007ac16565b92915050565b6000546001600160a01b031690565b60006200040e620004d3565b62000460576040805162461bcd60e51b815260206004820181905260248201527f4f776e61626c653a2063616c6c6572206973206e6f7420746865206f776e6572604482015290519081900360640190fd5b6200047360018363ffffffff620007d116565b60008281526004602090815260409182902080546001600160a01b0319169055815133815290810184905281517f677c428b7e99d3d40a0eb5ad7cc608d272254af33cb19cf27ee94e6a8d5561e2929181900390910190a1506001919050565b600080546001600160a01b0316620004ea620008b9565b6001600160a01b031614905090565b60006200050e60018863ffffffff620008bd16565b600060046000898152602001908152602001600020905060003484338b8b8b8b8b6040516200053d9062000a6c565b8781526001600160a01b03871660208201526040810186905260a0606082018181529082018590526080820160c08301878780828437600083820152601f01601f191690910184810383528581526020019050858580828437600083820152604051601f909101601f19169092018290039b509099508b98505050505050505050f0905080158015620005d4573d6000803e3d6000fd5b509050806001600160a01b031663f2fde38b620005f0620003f3565b6040518263ffffffff1660e01b815260040180826001600160a01b03166001600160a01b03168152602001915050600060405180830381600087803b1580156200063957600080fd5b505af11580156200064e573d6000803e3d6000fd5b505083546001600160a01b0384166001600160a01b03199091168117855560408051338152602081018e905280820192909252518493507fbf1929abf2acf8e1428f27a05ec45256fc0219f551fd3c533f34114a627b1d3d92509081900360600190a15060019998505050505050505050565b6000620006cf600162000978565b905090565b6000620006e960018363ffffffff6200097f16565b620007265760405162461bcd60e51b8152600401808060200182810382526026815260200180620022ff6026913960400191505060405180910390fd5b506000908152600460205260409020546001600160a01b031690565b6200074c620004d3565b6200079e576040805162461bcd60e51b815260206004820181905260248201527f4f776e61626c653a2063616c6c6572206973206e6f7420746865206f776e6572604482015290519081900360640190fd5b620007a981620009ca565b50565b6000826001018281548110620007be57fe5b9060005260206000200154905092915050565b620007dd82826200097f565b6200081a5760405162461bcd60e51b8152600401808060200182810382526035815260200180620022ca6035913960400191505060405180910390fd5b60008260010160016200082d8562000978565b03815481106200083957fe5b60009182526020808320909101548483529085905260408083205482845292208290556001850180549193508391839081106200087257fe5b6000918252602080832090910192909255848152908590526040812055600184018054806200089d57fe5b6001900381819060005260206000200160009055905550505050565b3390565b80620008fb5760405162461bcd60e51b81526004018080602001828103825260288152602001806200227c6028913960400191505060405180910390fd5b6200090782826200097f565b15620009455760405162461bcd60e51b8152600401808060200182810382526035815260200180620023256035913960400191505060405180910390fd5b60018281018054918201815560008181526020808220909301849055905492815292905260409091206000199091019055565b6001015490565b60018201546000906200099557506000620003ed565b6000828152602084905260409020546001840180548492908110620009b657fe5b906000526020600020015414905092915050565b6001600160a01b03811662000a115760405162461bcd60e51b8152600401808060200182810382526026815260200180620022a46026913960400191505060405180910390fd5b600080546040516001600160a01b03808516939216917f8be0079c531659141344cd1fd0a4f28419497f9722a3daafe3b4186f6b6457e091a3600080546001600160a01b0319166001600160a01b0392909216919091179055565b6118018062000a7b8339019056fe60806040526040516200180138038062001801833981810160405260a08110156200002957600080fd5b8151602083015160408085015160608601805192519496939591949391820192846401000000008211156200005d57600080fd5b9083019060208201858111156200007357600080fd5b82516401000000008111828201881017156200008e57600080fd5b82525081516020918201929091019080838360005b83811015620000bd578181015183820152602001620000a3565b50505050905090810190601f168015620000eb5780820380516001836020036101000a031916815260200191505b50604052602001805160405193929190846401000000008211156200010f57600080fd5b9083019060208201858111156200012557600080fd5b82516401000000008111828201881017156200014057600080fd5b82525081516020918201929091019080838360005b838110156200016f57818101518382015260200162000155565b50505050905090810190601f1680156200019d5780820380516001836020036101000a031916815260200191505b506040525050506000620001b66200052060201b60201c565b600080546001600160a01b0319166001600160a01b0383169081178255604051929350917f8be0079c531659141344cd1fd0a4f28419497f9722a3daafe3b4186f6b6457e0908290a350826200026d57604080517f08c379a000000000000000000000000000000000000000000000000000000000815260206004820152601160248201527f4b65792063616e6e6f7420626520307830000000000000000000000000000000604482015290519081900360640190fd5b6000825111620002de57604080517f08c379a000000000000000000000000000000000000000000000000000000000815260206004820152601a60248201527f4465736372697074696f6e2063616e277420626520656d707479000000000000604482015290519081900360640190fd5b600085116200034e57604080517f08c379a000000000000000000000000000000000000000000000000000000000815260206004820181905260248201527f4d75737420737065636966792074686520636f6d6d697373696f6e2072617465604482015290519081900360640190fd5b6001600160a01b038416620003c457604080517f08c379a000000000000000000000000000000000000000000000000000000000815260206004820152601e60248201527f5468652073656c6c657220697320746865207a65726f20616464726573730000604482015290519081900360640190fd5b6001859055600280546001600160a01b0319166001600160a01b03861617905560058390558051620003fe90600790602084019062000637565b5081516200041490600690602085019062000637565b50620004306002346200052560201b62000e771790919060201c565b6004819055620004a157604080517f08c379a000000000000000000000000000000000000000000000000000000000815260206004820152601260248201527f4d75737420737065636966792070726963650000000000000000000000000000604482015290519081900360640190fd5b34600454600202146200051557604080517f08c379a000000000000000000000000000000000000000000000000000000000815260206004820152601460248201527f50726963652068617320746f206265206576656e000000000000000000000000604482015290519081900360640190fd5b5050505050620006d9565b335b90565b60006200056f83836040518060400160405280601a81526020017f536166654d6174683a206469766973696f6e206279207a65726f0000000000008152506200057660201b60201c565b9392505050565b6000818362000620576040517f08c379a00000000000000000000000000000000000000000000000000000000081526004018080602001828103825283818151815260200191508051906020019080838360005b83811015620005e4578181015183820152602001620005ca565b50505050905090810190601f168015620006125780820380516001836020036101000a031916815260200191505b509250505060405180910390fd5b5060008385816200062d57fe5b0495945050505050565b828054600181600116156101000203166002900490600052602060002090601f016020900481019282601f106200067a57805160ff1916838001178555620006aa565b82800160010185558215620006aa579182015b82811115620006aa5782518255916020019190600101906200068d565b50620006b8929150620006bc565b5090565b6200052291905b80821115620006b85760008155600101620006c3565b61111880620006e96000396000f3fe6080604052600436106100fe5760003560e01c8063722713f711610095578063a035b1fe11610064578063a035b1fe146102ff578063c19d93fb14610314578063caa1acca1461034d578063f2fde38b14610362578063ff0a921014610397576100fe565b8063722713f7146102ab5780637284e416146102c05780638da5cb5b146102d55780638f32d59b146102ea576100fe565b80633943380c116100d15780633943380c1461024557806342730a671461026c5780635ea1d6f8146102815780637150d8ae14610296576100fe565b806305f2327e1461014c57806308551a53146101755780632b6bd172146101a65780633440543a14610230575b34801561010a57600080fd5b506040805162461bcd60e51b8152602060048201526011602482015270139bc8115d1a195c88195e18d95c1d1959607a1b604482015290519081900360640190fd5b34801561015857600080fd5b5061016161039f565b604080519115158252519081900360200190f35b34801561018157600080fd5b5061018a61059c565b604080516001600160a01b039092168252519081900360200190f35b3480156101b257600080fd5b506101bb6105ab565b6040805160208082528351818301528351919283929083019185019080838360005b838110156101f55781810151838201526020016101dd565b50505050905090810190601f1680156102225780820380516001836020036101000a031916815260200191505b509250505060405180910390f35b34801561023c57600080fd5b50610161610639565b34801561025157600080fd5b5061025a610787565b60408051918252519081900360200190f35b34801561027857600080fd5b5061016161078d565b34801561028d57600080fd5b5061025a610a14565b3480156102a257600080fd5b5061018a610a87565b3480156102b757600080fd5b5061025a610a96565b3480156102cc57600080fd5b506101bb610a9b565b3480156102e157600080fd5b5061018a610af6565b3480156102f657600080fd5b50610161610b05565b34801561030b57600080fd5b5061025a610b29565b34801561032057600080fd5b50610329610b2f565b6040518082600681111561033957fe5b60ff16815260200191505060405180910390f35b34801561035957600080fd5b50610161610b38565b34801561036e57600080fd5b506103956004803603602081101561038557600080fd5b50356001600160a01b0316610c8d565b005b610161610cf2565b60006103a9610b05565b6103fa576040805162461bcd60e51b815260206004820181905260248201527f4f776e61626c653a2063616c6c6572206973206e6f7420746865206f776e6572604482015290519081900360640190fd5b600360085460ff16600681111561040d57fe5b14806104295750600460085460ff16600681111561042757fe5b145b80610475576040805162461bcd60e51b815260206004820152601760248201527621b7b73234ba34b7b71034b9903737ba103b30b634b21760491b604482015290519081900360640190fd5b600460085460ff16600681111561048857fe5b1415610539576000610498610a96565b6008805491925060069160ff19166001835b02179055506104b7610af6565b6001600160a01b03166108fc829081150290604051600060405180830381858888f193505050501580156104ef573d6000803e3d6000fd5b50600554604080518381526020810192909252805133927f2129bd15197623093be41266e086becfae397746bc7db95596ca4a1f36ef79c692908290030190a26001925050610598565b600360085460ff16600681111561054c57fe5b141561059357600061057d612710610571600154600454610e1590919063ffffffff16565b9063ffffffff610e7716565b6008805491925060059160ff19166001836104aa565b600091505b5090565b6002546001600160a01b031681565b6007805460408051602060026001851615610100026000190190941693909304601f810184900484028201840190925281815292918301828280156106315780601f1061060657610100808354040283529160200191610631565b820191906000526020600020905b81548152906001019060200180831161061457829003601f168201915b505050505081565b6003546000906001600160a01b0316331461069b576040805162461bcd60e51b815260206004820152601960248201527f4f6e6c792062757965722063616e2063616c6c20746869732e00000000000000604482015290519081900360640190fd5b60018060085460ff1660068111156106af57fe5b146106f2576040805162461bcd60e51b815260206004820152600e60248201526d24b73b30b634b21039ba30ba329760911b604482015290519081900360640190fd5b6008805460ff19166003908117909155546004546040516001600160a01b03909216916108fc82150291906000818181858888f1935050505015801561073c573d6000803e3d6000fd5b50600454600554604080519283526020830191909152805133927fc5d165c13c7cf52e8c1d83e8360217d28e037f972dbe510fe426aab4f816feaf92908290030190a2600191505090565b60055481565b6002546000906001600160a01b031633146107ef576040805162461bcd60e51b815260206004820152601a60248201527f4f6e6c792073656c6c65722063616e2063616c6c20746869732e000000000000604482015290519081900360640190fd5b600360085460ff16600681111561080257fe5b148061081e5750600560085460ff16600681111561081c57fe5b145b8061086a576040805162461bcd60e51b815260206004820152601760248201527621b7b73234ba34b7b71034b9903737ba103b30b634b21760491b604482015290519081900360640190fd5b600560085460ff16600681111561087d57fe5b141561091f57600061088d610a96565b6008805460ff191660061790556002546040519192506001600160a01b0316906108fc8315029083906000818181858888f193505050501580156108d5573d6000803e3d6000fd5b50600554604080518381526020810192909252805133927fd94337f1569bbb41c44db2961d128ddcb40da33ffbc64d4cc350e05aee78f36c92908290030190a26001925050610598565b600360085460ff16600681111561093257fe5b1415610593576000610957612710610571600154600454610e1590919063ffffffff16565b90506000610981826109756003600454610e1590919063ffffffff16565b9063ffffffff610eb916565b6008805460ff191660041790556002546040519192506001600160a01b0316906108fc8315029083906000818181858888f193505050501580156109c9573d6000803e3d6000fd5b50600554604080518381526020810192909252805133927fd94337f1569bbb41c44db2961d128ddcb40da33ffbc64d4cc350e05aee78f36c92908290030190a2600193505050610598565b6000610a1e610b05565b80610a3357506002546001600160a01b031633145b80610a7f576040805162461bcd60e51b815260206004820152601760248201527621b7b73234ba34b7b71034b9903737ba103b30b634b21760491b604482015290519081900360640190fd5b505060015490565b6003546001600160a01b031681565b303190565b6006805460408051602060026001851615610100026000190190941693909304601f810184900484028201840190925281815292918301828280156106315780601f1061060657610100808354040283529160200191610631565b6000546001600160a01b031690565b600080546001600160a01b0316610b1a610efb565b6001600160a01b031614905090565b60045481565b60085460ff1681565b6002546000906001600160a01b03163314610b9a576040805162461bcd60e51b815260206004820152601a60248201527f4f6e6c792073656c6c65722063616e2063616c6c20746869732e000000000000604482015290519081900360640190fd5b60008060085460ff166006811115610bae57fe5b14610bf1576040805162461bcd60e51b815260206004820152600e60248201526d24b73b30b634b21039ba30ba329760911b604482015290519081900360640190fd5b6000610bfb610a96565b6008805460ff19166002908117909155546040519192506001600160a01b0316906108fc8315029083906000818181858888f19350505050158015610c44573d6000803e3d6000fd5b50600554604080518381526020810192909252805133927fe552887a088089a580f4fe85522ef5af09776f4e4b5019499cdb80013af9ef7792908290030190a260019250505090565b610c95610b05565b610ce6576040805162461bcd60e51b815260206004820181905260248201527f4f776e61626c653a2063616c6c6572206973206e6f7420746865206f776e6572604482015290519081900360640190fd5b610cef81610eff565b50565b6000808060085460ff166006811115610d0757fe5b14610d4a576040805162461bcd60e51b815260206004820152600e60248201526d24b73b30b634b21039ba30ba329760911b604482015290519081900360640190fd5b600454610d5e90600263ffffffff610e1516565b341480610dac576040805162461bcd60e51b815260206004820152601760248201527621b7b73234ba34b7b71034b9903737ba103b30b634b21760491b604482015290519081900360640190fd5b600380546001600160a01b031916339081179091556008805460ff1916600117905560055460408051348152602081019290925280517f85da4895962a0b3be198f8a66cacfdc31ce56bc1b298a9530021e876d01f505d9281900390910190a260019250505090565b600082610e2457506000610e71565b82820282848281610e3157fe5b0414610e6e5760405162461bcd60e51b81526004018080602001828103825260218152602001806110c26021913960400191505060405180910390fd5b90505b92915050565b6000610e6e83836040518060400160405280601a81526020017f536166654d6174683a206469766973696f6e206279207a65726f000000000000815250610f9f565b6000610e6e83836040518060400160405280601e81526020017f536166654d6174683a207375627472616374696f6e206f766572666c6f770000815250611041565b3390565b6001600160a01b038116610f445760405162461bcd60e51b815260040180806020018281038252602681526020018061109c6026913960400191505060405180910390fd5b600080546040516001600160a01b03808516939216917f8be0079c531659141344cd1fd0a4f28419497f9722a3daafe3b4186f6b6457e091a3600080546001600160a01b0319166001600160a01b0392909216919091179055565b6000818361102b5760405162461bcd60e51b81526004018080602001828103825283818151815260200191508051906020019080838360005b83811015610ff0578181015183820152602001610fd8565b50505050905090810190601f16801561101d5780820380516001836020036101000a031916815260200191505b509250505060405180910390fd5b50600083858161103757fe5b0495945050505050565b600081848411156110935760405162461bcd60e51b8152602060048201818152835160248401528351909283926044909101919085019080838360008315610ff0578181015183820152602001610fd8565b50505090039056fe4f776e61626c653a206e6577206f776e657220697320746865207a65726f2061646472657373536166654d6174683a206d756c7469706c69636174696f6e206f766572666c6f77a26469706673582212204b827cf1d43b264508bccd65a5310b1dc17c725e1bfa9071fe6fcd8f65f2506a64736f6c63430006000033556e6f7264657265644b65795365742831303029202d204b65792063616e6e6f74206265203078304f776e61626c653a206e6577206f776e657220697320746865207a65726f2061646472657373556e6f7264657265644b65795365742831303229202d204b657920646f6573206e6f7420657869737420696e20746865207365742e43616e277420676574206120776964676574207468617420646f65736e27742065786973742e556e6f7264657265644b65795365742831303129202d204b657920616c72656164792065786973747320696e20746865207365742ea2646970667358221220abcf3c3a4ac05530ab4ed78325ace50439e5fb1a64866421e463e8a6d2aa67a664736f6c63430006000033",
  "source": "pragma solidity ^0.6.0;\r\n\r\n/*\r\n- Functions can be specified as being external, public, internal or private, where the default is public.\r\n - For state variables, external is not possible and the default is internal.\r\n\r\n -  For public state variables (!! not external), an automatic getter function (see below) is generated.\r\n\r\n  - internal:\r\nThose functions and state variables can only be accessed internally\r\n(i.e. from within the current contract or contracts deriving from it), without using this.\r\n*/\r\n\r\n\r\nimport \"./HitchensUnorderedKeySet.sol\";\r\nimport \"./SafeRemotePurchase.sol\";\r\nimport \"./Ownable.sol\";\r\n\r\ncontract FleaMarketFactory is Ownable {\r\n\r\n    using HitchensUnorderedKeySetLib for HitchensUnorderedKeySetLib.Set;\r\n        HitchensUnorderedKeySetLib.Set private widgetSet;\r\n\r\n    string public contractName;\r\n\r\n    struct WidgetStruct {\r\n        // pointer on the child contract\r\n        address purchaseContract;\r\n    }\r\n\r\n    mapping(bytes32 => WidgetStruct) private widgets;\r\n\r\n    constructor() public {\r\n        contractName = \"FleaMarket Smart Contract\";\r\n    }\r\n\r\n    event LogCreatePurchaseContract(address sender, bytes32 key, address contractAddress);\r\n    event LogRemovePurchaseContract(address sender, bytes32 key);\r\n\r\n\r\n    // deploy a new purchase contract\r\n    // payable for functions: Allows them to receive Ether together with a call.\r\n    // commissionRate, for example, 350 ==>  (350/100) = 3.5%\r\n    function createPurchaseContract(bytes32 key, string calldata description, string calldata ipfsImageHash,\r\n        uint256 commissionRate) external payable returns(bool createResult) {\r\n\r\n        widgetSet.insert(key); // Note that this will fail automatically if the key already exists.\r\n        WidgetStruct storage wgt = widgets[key];\r\n\t\t/*\r\n\t\t  When a new contract is created with the 'new' keyword, for example\r\n\t\t     Token token = new Token;\r\n\r\n          This line fires a transaction which deploys the child Token contract\r\n          and returns the address for that contract.\r\n          In Solidity contracts are directly convertible to addresses.\r\n          The newer compiler wants to see that explicitly, like return address(token);\r\n\t\t*/\r\n\r\n        // msg.sender would be the seller\r\n        SafeRemotePurchase c = (new SafeRemotePurchase).value(msg.value)(commissionRate, msg.sender, key, description, ipfsImageHash);\r\n\r\n\r\n        /*\r\n        !!! Important notice.\r\n        When a new children contract is created the msg.sender value passed to the Ownable\r\n        is the address of the parent contract.\r\n        So we need to tell the child contract who is the contract manager\r\n        */\r\n        c.transferOwnership(owner());\r\n\r\n\r\n        // cast contract pointer to address\r\n        address newContract = address(c);\r\n        wgt.purchaseContract = newContract;\r\n\r\n        emit LogCreatePurchaseContract(msg.sender, key, newContract);\r\n\r\n        return true;\r\n    }\r\n\r\n    function getContractCount() public view returns(uint contractCount) {\r\n        return widgetSet.count();\r\n    }\r\n\r\n    function getContractKeyAtIndex(uint index) external view returns(bytes32 key) {\r\n        return widgetSet.keyAtIndex(index);\r\n    }\r\n\r\n    function getContractByKey(bytes32 key) external view returns(address contractAddress) {\r\n        require(widgetSet.exists(key), \"Can't get a widget that doesn't exist.\");\r\n        WidgetStruct storage w = widgets[key];\r\n        return (w.purchaseContract);\r\n    }\r\n\r\n    function removeContractByKey(bytes32 key) external onlyOwner returns(bool result) {\r\n        // Note that this will fail automatically if the key doesn't exist\r\n        widgetSet.remove(key);\r\n        delete widgets[key];\r\n        emit LogRemovePurchaseContract(msg.sender, key);\r\n        return true;\r\n    }\r\n\r\n}",
  "sourcePath": "C:/Users/blade_runner/Desktop/flea-marketplace-dapp/contracts/FleaMarketFactory.sol",
  "compiler": {
    "name": "solc",
    "version": "0.6.0+commit.26b70077.Emscripten.clang"
  },
  "schemaVersion": "3.2.3",
  "updatedAt": "2020-08-18T10:23:25.329Z",
  "devdoc": {
    "methods": {}
  },
  "userdoc": {
    "methods": {
      "isOwner()": {
        "notice": "Returns true if the caller is the current owner."
      },
      "owner()": {
        "notice": "Returns the address of the current owner."
      },
      "transferOwnership(address)": {
        "notice": "Transfers ownership of the contract to a new account (`newOwner`). Can only be called by the current owner."
      }
    }
  }
}