{
  "contractName": "SafeRemotePurchase",
  "abi": [
    {
      "inputs": [
        {
          "internalType": "uint256",
          "name": "_rate",
          "type": "uint256"
        },
        {
          "internalType": "address payable",
          "name": "_seller",
          "type": "address"
        },
        {
          "internalType": "bytes32",
          "name": "_key",
          "type": "bytes32"
        },
        {
          "internalType": "string",
          "name": "_description",
          "type": "string"
        },
        {
          "internalType": "string",
          "name": "_ipfxImageHash",
          "type": "string"
        }
      ],
      "stateMutability": "payable",
      "type": "constructor"
    },
    {
      "anonymous": false,
      "inputs": [
        {
          "indexed": true,
          "internalType": "address",
          "name": "sender",
          "type": "address"
        },
        {
          "indexed": false,
          "internalType": "uint256",
          "name": "amount",
          "type": "uint256"
        },
        {
          "indexed": false,
          "internalType": "bytes32",
          "name": "key",
          "type": "bytes32"
        }
      ],
      "name": "LogCanceledBySeller",
      "type": "event"
    },
    {
      "anonymous": false,
      "inputs": [
        {
          "indexed": true,
          "internalType": "address",
          "name": "sender",
          "type": "address"
        },
        {
          "indexed": false,
          "internalType": "uint256",
          "name": "amount",
          "type": "uint256"
        },
        {
          "indexed": false,
          "internalType": "bytes32",
          "name": "key",
          "type": "bytes32"
        }
      ],
      "name": "LogPurchaseConfirmed",
      "type": "event"
    },
    {
      "anonymous": false,
      "inputs": [
        {
          "indexed": true,
          "internalType": "address",
          "name": "sender",
          "type": "address"
        },
        {
          "indexed": false,
          "internalType": "uint256",
          "name": "amount",
          "type": "uint256"
        },
        {
          "indexed": false,
          "internalType": "bytes32",
          "name": "key",
          "type": "bytes32"
        }
      ],
      "name": "LogReceivedByBuyer",
      "type": "event"
    },
    {
      "anonymous": false,
      "inputs": [
        {
          "indexed": true,
          "internalType": "address",
          "name": "sender",
          "type": "address"
        },
        {
          "indexed": false,
          "internalType": "uint256",
          "name": "amount",
          "type": "uint256"
        },
        {
          "indexed": false,
          "internalType": "bytes32",
          "name": "key",
          "type": "bytes32"
        }
      ],
      "name": "LogWithdrawByOwner",
      "type": "event"
    },
    {
      "anonymous": false,
      "inputs": [
        {
          "indexed": true,
          "internalType": "address",
          "name": "sender",
          "type": "address"
        },
        {
          "indexed": false,
          "internalType": "uint256",
          "name": "amount",
          "type": "uint256"
        },
        {
          "indexed": false,
          "internalType": "bytes32",
          "name": "key",
          "type": "bytes32"
        }
      ],
      "name": "LogWithdrawBySeller",
      "type": "event"
    },
    {
      "anonymous": false,
      "inputs": [
        {
          "indexed": true,
          "internalType": "address",
          "name": "previousOwner",
          "type": "address"
        },
        {
          "indexed": true,
          "internalType": "address",
          "name": "newOwner",
          "type": "address"
        }
      ],
      "name": "OwnershipTransferred",
      "type": "event"
    },
    {
      "stateMutability": "nonpayable",
      "type": "fallback"
    },
    {
      "inputs": [],
      "name": "buyer",
      "outputs": [
        {
          "internalType": "address payable",
          "name": "",
          "type": "address"
        }
      ],
      "stateMutability": "view",
      "type": "function"
    },
    {
      "inputs": [],
      "name": "description",
      "outputs": [
        {
          "internalType": "string",
          "name": "",
          "type": "string"
        }
      ],
      "stateMutability": "view",
      "type": "function"
    },
    {
      "inputs": [],
      "name": "ipfsImageHash",
      "outputs": [
        {
          "internalType": "string",
          "name": "",
          "type": "string"
        }
      ],
      "stateMutability": "view",
      "type": "function"
    },
    {
      "inputs": [],
      "name": "isOwner",
      "outputs": [
        {
          "internalType": "bool",
          "name": "",
          "type": "bool"
        }
      ],
      "stateMutability": "view",
      "type": "function"
    },
    {
      "inputs": [],
      "name": "key",
      "outputs": [
        {
          "internalType": "bytes32",
          "name": "",
          "type": "bytes32"
        }
      ],
      "stateMutability": "view",
      "type": "function"
    },
    {
      "inputs": [],
      "name": "owner",
      "outputs": [
        {
          "internalType": "address payable",
          "name": "",
          "type": "address"
        }
      ],
      "stateMutability": "view",
      "type": "function"
    },
    {
      "inputs": [],
      "name": "price",
      "outputs": [
        {
          "internalType": "uint256",
          "name": "",
          "type": "uint256"
        }
      ],
      "stateMutability": "view",
      "type": "function"
    },
    {
      "inputs": [],
      "name": "seller",
      "outputs": [
        {
          "internalType": "address payable",
          "name": "",
          "type": "address"
        }
      ],
      "stateMutability": "view",
      "type": "function"
    },
    {
      "inputs": [],
      "name": "state",
      "outputs": [
        {
          "internalType": "enum SafeRemotePurchase.State",
          "name": "",
          "type": "uint8"
        }
      ],
      "stateMutability": "view",
      "type": "function"
    },
    {
      "inputs": [
        {
          "internalType": "address payable",
          "name": "newOwner",
          "type": "address"
        }
      ],
      "name": "transferOwnership",
      "outputs": [],
      "stateMutability": "nonpayable",
      "type": "function"
    },
    {
      "inputs": [],
      "name": "buyerPurchase",
      "outputs": [
        {
          "internalType": "bool",
          "name": "result",
          "type": "bool"
        }
      ],
      "stateMutability": "payable",
      "type": "function"
    },
    {
      "inputs": [],
      "name": "buyerConfirmReceived",
      "outputs": [
        {
          "internalType": "bool",
          "name": "result",
          "type": "bool"
        }
      ],
      "stateMutability": "nonpayable",
      "type": "function"
    },
    {
      "inputs": [],
      "name": "abortBySeller",
      "outputs": [
        {
          "internalType": "bool",
          "name": "result",
          "type": "bool"
        }
      ],
      "stateMutability": "nonpayable",
      "type": "function"
    },
    {
      "inputs": [],
      "name": "withdrawBySeller",
      "outputs": [
        {
          "internalType": "bool",
          "name": "result",
          "type": "bool"
        }
      ],
      "stateMutability": "nonpayable",
      "type": "function"
    },
    {
      "inputs": [],
      "name": "withdrawByOwner",
      "outputs": [
        {
          "internalType": "bool",
          "name": "result",
          "type": "bool"
        }
      ],
      "stateMutability": "nonpayable",
      "type": "function"
    },
    {
      "inputs": [],
      "name": "commissionRate",
      "outputs": [
        {
          "internalType": "uint256",
          "name": "commission",
          "type": "uint256"
        }
      ],
      "stateMutability": "view",
      "type": "function"
    },
    {
      "inputs": [],
      "name": "balanceOf",
      "outputs": [
        {
          "internalType": "uint256",
          "name": "",
          "type": "uint256"
        }
      ],
      "stateMutability": "view",
      "type": "function"
    }
  ],
  "bytecode": "0x60806040526040516200180138038062001801833981810160405260a08110156200002957600080fd5b8151602083015160408085015160608601805192519496939591949391820192846401000000008211156200005d57600080fd5b9083019060208201858111156200007357600080fd5b82516401000000008111828201881017156200008e57600080fd5b82525081516020918201929091019080838360005b83811015620000bd578181015183820152602001620000a3565b50505050905090810190601f168015620000eb5780820380516001836020036101000a031916815260200191505b50604052602001805160405193929190846401000000008211156200010f57600080fd5b9083019060208201858111156200012557600080fd5b82516401000000008111828201881017156200014057600080fd5b82525081516020918201929091019080838360005b838110156200016f57818101518382015260200162000155565b50505050905090810190601f1680156200019d5780820380516001836020036101000a031916815260200191505b506040525050506000620001b66200052060201b60201c565b600080546001600160a01b0319166001600160a01b0383169081178255604051929350917f8be0079c531659141344cd1fd0a4f28419497f9722a3daafe3b4186f6b6457e0908290a350826200026d57604080517f08c379a000000000000000000000000000000000000000000000000000000000815260206004820152601160248201527f4b65792063616e6e6f7420626520307830000000000000000000000000000000604482015290519081900360640190fd5b6000825111620002de57604080517f08c379a000000000000000000000000000000000000000000000000000000000815260206004820152601a60248201527f4465736372697074696f6e2063616e277420626520656d707479000000000000604482015290519081900360640190fd5b600085116200034e57604080517f08c379a000000000000000000000000000000000000000000000000000000000815260206004820181905260248201527f4d75737420737065636966792074686520636f6d6d697373696f6e2072617465604482015290519081900360640190fd5b6001600160a01b038416620003c457604080517f08c379a000000000000000000000000000000000000000000000000000000000815260206004820152601e60248201527f5468652073656c6c657220697320746865207a65726f20616464726573730000604482015290519081900360640190fd5b6001859055600280546001600160a01b0319166001600160a01b03861617905560058390558051620003fe90600790602084019062000637565b5081516200041490600690602085019062000637565b50620004306002346200052560201b62000e771790919060201c565b6004819055620004a157604080517f08c379a000000000000000000000000000000000000000000000000000000000815260206004820152601260248201527f4d75737420737065636966792070726963650000000000000000000000000000604482015290519081900360640190fd5b34600454600202146200051557604080517f08c379a000000000000000000000000000000000000000000000000000000000815260206004820152601460248201527f50726963652068617320746f206265206576656e000000000000000000000000604482015290519081900360640190fd5b5050505050620006d9565b335b90565b60006200056f83836040518060400160405280601a81526020017f536166654d6174683a206469766973696f6e206279207a65726f0000000000008152506200057660201b60201c565b9392505050565b6000818362000620576040517f08c379a00000000000000000000000000000000000000000000000000000000081526004018080602001828103825283818151815260200191508051906020019080838360005b83811015620005e4578181015183820152602001620005ca565b50505050905090810190601f168015620006125780820380516001836020036101000a031916815260200191505b509250505060405180910390fd5b5060008385816200062d57fe5b0495945050505050565b828054600181600116156101000203166002900490600052602060002090601f016020900481019282601f106200067a57805160ff1916838001178555620006aa565b82800160010185558215620006aa579182015b82811115620006aa5782518255916020019190600101906200068d565b50620006b8929150620006bc565b5090565b6200052291905b80821115620006b85760008155600101620006c3565b61111880620006e96000396000f3fe6080604052600436106100fe5760003560e01c8063722713f711610095578063a035b1fe11610064578063a035b1fe146102ff578063c19d93fb14610314578063caa1acca1461034d578063f2fde38b14610362578063ff0a921014610397576100fe565b8063722713f7146102ab5780637284e416146102c05780638da5cb5b146102d55780638f32d59b146102ea576100fe565b80633943380c116100d15780633943380c1461024557806342730a671461026c5780635ea1d6f8146102815780637150d8ae14610296576100fe565b806305f2327e1461014c57806308551a53146101755780632b6bd172146101a65780633440543a14610230575b34801561010a57600080fd5b506040805162461bcd60e51b8152602060048201526011602482015270139bc8115d1a195c88195e18d95c1d1959607a1b604482015290519081900360640190fd5b34801561015857600080fd5b5061016161039f565b604080519115158252519081900360200190f35b34801561018157600080fd5b5061018a61059c565b604080516001600160a01b039092168252519081900360200190f35b3480156101b257600080fd5b506101bb6105ab565b6040805160208082528351818301528351919283929083019185019080838360005b838110156101f55781810151838201526020016101dd565b50505050905090810190601f1680156102225780820380516001836020036101000a031916815260200191505b509250505060405180910390f35b34801561023c57600080fd5b50610161610639565b34801561025157600080fd5b5061025a610787565b60408051918252519081900360200190f35b34801561027857600080fd5b5061016161078d565b34801561028d57600080fd5b5061025a610a14565b3480156102a257600080fd5b5061018a610a87565b3480156102b757600080fd5b5061025a610a96565b3480156102cc57600080fd5b506101bb610a9b565b3480156102e157600080fd5b5061018a610af6565b3480156102f657600080fd5b50610161610b05565b34801561030b57600080fd5b5061025a610b29565b34801561032057600080fd5b50610329610b2f565b6040518082600681111561033957fe5b60ff16815260200191505060405180910390f35b34801561035957600080fd5b50610161610b38565b34801561036e57600080fd5b506103956004803603602081101561038557600080fd5b50356001600160a01b0316610c8d565b005b610161610cf2565b60006103a9610b05565b6103fa576040805162461bcd60e51b815260206004820181905260248201527f4f776e61626c653a2063616c6c6572206973206e6f7420746865206f776e6572604482015290519081900360640190fd5b600360085460ff16600681111561040d57fe5b14806104295750600460085460ff16600681111561042757fe5b145b80610475576040805162461bcd60e51b815260206004820152601760248201527621b7b73234ba34b7b71034b9903737ba103b30b634b21760491b604482015290519081900360640190fd5b600460085460ff16600681111561048857fe5b1415610539576000610498610a96565b6008805491925060069160ff19166001835b02179055506104b7610af6565b6001600160a01b03166108fc829081150290604051600060405180830381858888f193505050501580156104ef573d6000803e3d6000fd5b50600554604080518381526020810192909252805133927f2129bd15197623093be41266e086becfae397746bc7db95596ca4a1f36ef79c692908290030190a26001925050610598565b600360085460ff16600681111561054c57fe5b141561059357600061057d612710610571600154600454610e1590919063ffffffff16565b9063ffffffff610e7716565b6008805491925060059160ff19166001836104aa565b600091505b5090565b6002546001600160a01b031681565b6007805460408051602060026001851615610100026000190190941693909304601f810184900484028201840190925281815292918301828280156106315780601f1061060657610100808354040283529160200191610631565b820191906000526020600020905b81548152906001019060200180831161061457829003601f168201915b505050505081565b6003546000906001600160a01b0316331461069b576040805162461bcd60e51b815260206004820152601960248201527f4f6e6c792062757965722063616e2063616c6c20746869732e00000000000000604482015290519081900360640190fd5b60018060085460ff1660068111156106af57fe5b146106f2576040805162461bcd60e51b815260206004820152600e60248201526d24b73b30b634b21039ba30ba329760911b604482015290519081900360640190fd5b6008805460ff19166003908117909155546004546040516001600160a01b03909216916108fc82150291906000818181858888f1935050505015801561073c573d6000803e3d6000fd5b50600454600554604080519283526020830191909152805133927fc5d165c13c7cf52e8c1d83e8360217d28e037f972dbe510fe426aab4f816feaf92908290030190a2600191505090565b60055481565b6002546000906001600160a01b031633146107ef576040805162461bcd60e51b815260206004820152601a60248201527f4f6e6c792073656c6c65722063616e2063616c6c20746869732e000000000000604482015290519081900360640190fd5b600360085460ff16600681111561080257fe5b148061081e5750600560085460ff16600681111561081c57fe5b145b8061086a576040805162461bcd60e51b815260206004820152601760248201527621b7b73234ba34b7b71034b9903737ba103b30b634b21760491b604482015290519081900360640190fd5b600560085460ff16600681111561087d57fe5b141561091f57600061088d610a96565b6008805460ff191660061790556002546040519192506001600160a01b0316906108fc8315029083906000818181858888f193505050501580156108d5573d6000803e3d6000fd5b50600554604080518381526020810192909252805133927fd94337f1569bbb41c44db2961d128ddcb40da33ffbc64d4cc350e05aee78f36c92908290030190a26001925050610598565b600360085460ff16600681111561093257fe5b1415610593576000610957612710610571600154600454610e1590919063ffffffff16565b90506000610981826109756003600454610e1590919063ffffffff16565b9063ffffffff610eb916565b6008805460ff191660041790556002546040519192506001600160a01b0316906108fc8315029083906000818181858888f193505050501580156109c9573d6000803e3d6000fd5b50600554604080518381526020810192909252805133927fd94337f1569bbb41c44db2961d128ddcb40da33ffbc64d4cc350e05aee78f36c92908290030190a2600193505050610598565b6000610a1e610b05565b80610a3357506002546001600160a01b031633145b80610a7f576040805162461bcd60e51b815260206004820152601760248201527621b7b73234ba34b7b71034b9903737ba103b30b634b21760491b604482015290519081900360640190fd5b505060015490565b6003546001600160a01b031681565b303190565b6006805460408051602060026001851615610100026000190190941693909304601f810184900484028201840190925281815292918301828280156106315780601f1061060657610100808354040283529160200191610631565b6000546001600160a01b031690565b600080546001600160a01b0316610b1a610efb565b6001600160a01b031614905090565b60045481565b60085460ff1681565b6002546000906001600160a01b03163314610b9a576040805162461bcd60e51b815260206004820152601a60248201527f4f6e6c792073656c6c65722063616e2063616c6c20746869732e000000000000604482015290519081900360640190fd5b60008060085460ff166006811115610bae57fe5b14610bf1576040805162461bcd60e51b815260206004820152600e60248201526d24b73b30b634b21039ba30ba329760911b604482015290519081900360640190fd5b6000610bfb610a96565b6008805460ff19166002908117909155546040519192506001600160a01b0316906108fc8315029083906000818181858888f19350505050158015610c44573d6000803e3d6000fd5b50600554604080518381526020810192909252805133927fe552887a088089a580f4fe85522ef5af09776f4e4b5019499cdb80013af9ef7792908290030190a260019250505090565b610c95610b05565b610ce6576040805162461bcd60e51b815260206004820181905260248201527f4f776e61626c653a2063616c6c6572206973206e6f7420746865206f776e6572604482015290519081900360640190fd5b610cef81610eff565b50565b6000808060085460ff166006811115610d0757fe5b14610d4a576040805162461bcd60e51b815260206004820152600e60248201526d24b73b30b634b21039ba30ba329760911b604482015290519081900360640190fd5b600454610d5e90600263ffffffff610e1516565b341480610dac576040805162461bcd60e51b815260206004820152601760248201527621b7b73234ba34b7b71034b9903737ba103b30b634b21760491b604482015290519081900360640190fd5b600380546001600160a01b031916339081179091556008805460ff1916600117905560055460408051348152602081019290925280517f85da4895962a0b3be198f8a66cacfdc31ce56bc1b298a9530021e876d01f505d9281900390910190a260019250505090565b600082610e2457506000610e71565b82820282848281610e3157fe5b0414610e6e5760405162461bcd60e51b81526004018080602001828103825260218152602001806110c26021913960400191505060405180910390fd5b90505b92915050565b6000610e6e83836040518060400160405280601a81526020017f536166654d6174683a206469766973696f6e206279207a65726f000000000000815250610f9f565b6000610e6e83836040518060400160405280601e81526020017f536166654d6174683a207375627472616374696f6e206f766572666c6f770000815250611041565b3390565b6001600160a01b038116610f445760405162461bcd60e51b815260040180806020018281038252602681526020018061109c6026913960400191505060405180910390fd5b600080546040516001600160a01b03808516939216917f8be0079c531659141344cd1fd0a4f28419497f9722a3daafe3b4186f6b6457e091a3600080546001600160a01b0319166001600160a01b0392909216919091179055565b6000818361102b5760405162461bcd60e51b81526004018080602001828103825283818151815260200191508051906020019080838360005b83811015610ff0578181015183820152602001610fd8565b50505050905090810190601f16801561101d5780820380516001836020036101000a031916815260200191505b509250505060405180910390fd5b50600083858161103757fe5b0495945050505050565b600081848411156110935760405162461bcd60e51b8152602060048201818152835160248401528351909283926044909101919085019080838360008315610ff0578181015183820152602001610fd8565b50505090039056fe4f776e61626c653a206e6577206f776e657220697320746865207a65726f2061646472657373536166654d6174683a206d756c7469706c69636174696f6e206f766572666c6f77a26469706673582212204b827cf1d43b264508bccd65a5310b1dc17c725e1bfa9071fe6fcd8f65f2506a64736f6c63430006000033",
  "source": "/**\r\nbased on\r\n1. https://solidity.readthedocs.io/en/latest/solidity-by-example.html#safe-remote-purchase\r\n*/\r\n\r\npragma solidity ^0.6.0;\r\n\r\nimport \"@openzeppelin/contracts/math/SafeMath.sol\";\r\n// import \"https://github.com/OpenZeppelin/openzeppelin-contracts/blob/master/contracts/math/SafeMath.sol\"; // for Remix\r\nimport \"./Ownable.sol\";\r\n\r\n\r\ncontract SafeRemotePurchase is Ownable {\r\n    using SafeMath for uint256;\r\n\r\n    uint256 private _commissionRate; // for example, 350 ==>  (350/100) = 3.5%\r\n\r\n    address payable public seller;\r\n    address payable public buyer;\r\n    uint256 public price;\r\n    bytes32 public key; // unique string identifier\r\n    string public description;\r\n    string public ipfsImageHash;\r\n\r\n    enum State {\r\n        Created,\r\n        Locked,\r\n        Canceled,\r\n        ItemReceived,\r\n        SellerPaid,\r\n        OwnerPaid,\r\n        Completed\r\n    }\r\n    State public state;\r\n\r\n    // Contract created by the seller\r\n    // Ensure that `msg.value` is an even number.\r\n    // Division will truncate if it is an odd number.\r\n    // Check via multiplication that it wasn't an odd number.\r\n    constructor(\r\n        uint256 _rate,\r\n        address payable _seller,\r\n        bytes32 _key,\r\n        string memory _description,\r\n        string memory _ipfxImageHash\r\n    ) public payable {\r\n        require(_key != 0x0, \"Key cannot be 0x0\");\r\n        require(bytes(_description).length > 0, \"Description can't be empty\");\r\n        require(_rate > 0, \"Must specify the commission rate\");\r\n        require(_seller != address(0), \"The seller is the zero address\");\r\n\r\n        _commissionRate = _rate;\r\n        seller = _seller;\r\n        key = _key;\r\n        ipfsImageHash = _ipfxImageHash;\r\n        description = _description;\r\n        price = msg.value.div(2);\r\n\r\n        require(price > 0, \"Must specify price\");\r\n        require((price * 2) == msg.value, \"Price has to be even\");\r\n    }\r\n\r\n    modifier condition(bool _condition) {\r\n        require(_condition, \"Condition is not valid.\");\r\n        _;\r\n    }\r\n\r\n    modifier onlyBuyer() {\r\n        require(msg.sender == buyer, \"Only buyer can call this.\");\r\n        _;\r\n    }\r\n\r\n    modifier onlySeller() {\r\n        require(msg.sender == seller, \"Only seller can call this.\");\r\n        _;\r\n    }\r\n\r\n    modifier inState(State _state) {\r\n        require(state == _state, \"Invalid state.\");\r\n        _;\r\n    }\r\n\r\n    event LogCanceledBySeller(\r\n        address indexed sender,\r\n        uint256 amount,\r\n        bytes32 key\r\n    );\r\n    event LogPurchaseConfirmed(\r\n        address indexed sender,\r\n        uint256 amount,\r\n        bytes32 key\r\n    );\r\n    event LogReceivedByBuyer(\r\n        address indexed sender,\r\n        uint256 amount,\r\n        bytes32 key\r\n    );\r\n    event LogWithdrawBySeller(\r\n        address indexed sender,\r\n        uint256 amount,\r\n        bytes32 key\r\n    );\r\n    event LogWithdrawByOwner(\r\n        address indexed sender,\r\n        uint256 amount,\r\n        bytes32 key\r\n    );\r\n\r\n    // Confirm the purchase as buyer.\r\n    // Transaction has to include `2 * value` ether.\r\n    // The ether will be locked until buyerConfirmReceived is called\r\n    function buyerPurchase()\r\n        external\r\n        payable\r\n        inState(State.Created)\r\n        condition(msg.value == price.mul(2))\r\n        returns (bool result)\r\n    {\r\n        buyer = msg.sender;\r\n        state = State.Locked;\r\n        emit LogPurchaseConfirmed(msg.sender, msg.value, key);\r\n\r\n        return true;\r\n    }\r\n\r\n    // Confirm that the buyer received the item from the seller.\r\n    // The buyer will receive the locked ether in the amount of the price.\r\n    function buyerConfirmReceived()\r\n        external\r\n        onlyBuyer\r\n        inState(State.Locked)\r\n        returns (bool result)\r\n    {\r\n        state = State.ItemReceived;\r\n        buyer.transfer(price);\r\n        emit LogReceivedByBuyer(msg.sender, price, key);\r\n\r\n        return true;\r\n    }\r\n\r\n    // Abort the purchase and reclaim the ether.\r\n    // Can only be called by the seller before\r\n    // the contract is locked.\r\n    function abortBySeller()\r\n        external\r\n        onlySeller\r\n        inState(State.Created)\r\n        returns (bool result)\r\n    {\r\n        uint256 amount = balanceOf();\r\n        state = State.Canceled;\r\n\r\n        // We use transfer here directly. It is\r\n        // reentrancy-safe, because it is the\r\n        // last call in this function and we\r\n        // already changed the state.\r\n        seller.transfer(amount);\r\n        emit LogCanceledBySeller(msg.sender, amount, key);\r\n\r\n        return true;\r\n    }\r\n\r\n    function withdrawBySeller()\r\n        external\r\n        onlySeller\r\n        condition(state == State.ItemReceived || state == State.OwnerPaid)\r\n        returns (bool result)\r\n    {\r\n        if (state == State.OwnerPaid) {\r\n            uint256 amount = balanceOf();\r\n\r\n            state = State.Completed;\r\n            seller.transfer(amount);\r\n\r\n            emit LogWithdrawBySeller(msg.sender, amount, key);\r\n            return true;\r\n        } else if (state == State.ItemReceived) {\r\n            // calculate commission part\r\n            uint256 commission = (price.mul(_commissionRate)).div(10000);\r\n\r\n            // subtracts commission part: 3.5% ==> 350 /100\r\n            uint256 amount = (price.mul(3)).sub(commission);\r\n\r\n            state = State.SellerPaid;\r\n            seller.transfer(amount);\r\n            emit LogWithdrawBySeller(msg.sender, amount, key);\r\n\r\n            return true;\r\n        } else {\r\n            return false;\r\n        }\r\n    }\r\n\r\n    function withdrawByOwner()\r\n        external\r\n        onlyOwner\r\n        condition(state == State.ItemReceived || state == State.SellerPaid)\r\n        returns (bool result)\r\n    {\r\n        if (state == State.SellerPaid) {\r\n            uint256 amount = balanceOf();\r\n\r\n            state = State.Completed;\r\n            owner().transfer(amount);\r\n\r\n            emit LogWithdrawByOwner(msg.sender, amount, key);\r\n\r\n            return true;\r\n        } else if (state == State.ItemReceived) {\r\n            // calculate commission part: 3.5% ==> 350 /100\r\n            uint256 commission = (price.mul(_commissionRate)).div(10000);\r\n\r\n            state = State.OwnerPaid;\r\n            owner().transfer(commission);\r\n\r\n            emit LogWithdrawByOwner(msg.sender, commission, key);\r\n            return true;\r\n        } else {\r\n            return false;\r\n        }\r\n    }\r\n\r\n    // only owner (==deployer) and seller can see it\r\n    function commissionRate()\r\n        external\r\n        view\r\n        condition(isOwner() || msg.sender == seller)\r\n        returns (uint256 commission)\r\n    {\r\n        return _commissionRate;\r\n    }\r\n\r\n    // Get balance of the contract\r\n    function balanceOf() public view returns (uint256) {\r\n        return address(this).balance;\r\n    }\r\n\r\n    // Prevent someone sending ether to the contract\r\n    // It will cause an exception,\r\n    // because the fallback function does not have the 'payable'\r\n    // modifier.\r\n    fallback() external {\r\n        revert(\"No Ether excepted\");\r\n    }\r\n}",
  "sourcePath": "C:\\Users\\blade_runner\\Desktop\\flea-marketplace-dapp\\contracts\\SafeRemotePurchase.sol",
  "compiler": {
    "name": "solc",
    "version": "0.6.0+commit.26b70077.Emscripten.clang"
  },
  "schemaVersion": "3.2.3",
  "updatedAt": "2020-08-18T10:23:25.350Z",
  "devdoc": {
    "methods": {}
  },
  "userdoc": {
    "methods": {
      "isOwner()": {
        "notice": "Returns true if the caller is the current owner."
      },
      "owner()": {
        "notice": "Returns the address of the current owner."
      },
      "transferOwnership(address)": {
        "notice": "Transfers ownership of the contract to a new account (`newOwner`). Can only be called by the current owner."
      }
    }
  }
}